:020000040800F2
:10000000E8210020DD010008F5A300080D8E00089E
:10001000F1A30008392800085FC1000800000000B3
:10002000000000000000000000000000BDB100085A
:100030006B2A00080000000009A40008F501000870
:10004000F7010008F7010008F7010008F7010008B0
:10005000F7010008F7010008F7010008F7010008A0
:10006000F7010008F7010008F7010008F701000890
:10007000F7010008F7010008F7010008F701000880
:10008000F7010008F7010008F7010008F701000870
:10009000F7010008F7010008F7010008F701000860
:1000A000F7010008F7010008F7010008F701000850
:1000B000F7010008F7010008F7010008F701000840
:1000C000F7010008F7010008F7010008F701000830
:1000D000F7010008F7010008F7010008F701000820
:1000E000F7010008F7010008F7010008F701000810
:1000F000F7010008F7010008F7010008F701000800
:10010000F7010008F7010008F7010008F7010008EF
:10011000F7010008F701000841B30008F7010008E3
:10012000F7010008F7010008F7010008F7010008CF
:10013000F7010008F7010008F7010008F7010008BF
:10014000F7010008F7010008F7010008F9A300080B
:10015000F701000851290008F7010008F70100081D
:10016000F7010008F7010008F7010008F70100088F
:10017000F7010008F7010008F7010008000000007F
:10018000F7010008F7010008F7010008F70100086F
:10019000F7010008F7010008F7010008F70100085F
:1001A00029940008F701000859280008F701000801
:1001B000F7010008F7010008F7010008F70100083F
:1001C000F7010008F7010008DFF80CD000F0A2F8F2
:1001D0000048004749C70008E8210020064880473A
:1001E00006480047FEE7FEE7FEE7FEE7FEE7FEE71C
:1001F000FEE7FEE7FEE7FEE7DDB20008C901000802
:100200002DE9F05F0546002092469B46884606464B
:10021000814640241BE0284641464746224600F0DE
:1002200069F853465A46C01A914110D311461846F0
:10023000224600F050F82D1A67EB01084F4622467F
:100240000120002100F047F817EB00094E41201E65
:10025000A4F10104DFDC484631462A464346BDE8A6
:10026000F09F40EA01039B0703D009E008C9121F71
:1002700008C0042AFAD203E011F8013B00F8013B60
:10028000521EF9D27047D2B201E000F8012B491E8C
:10029000FBD270470022F6E710B513460A46044623
:1002A0001946FFF7F0FF204610BD30B50B4601465A
:1002B00000202022012409E021FA02F59D4205D305
:1002C00003FA02F5491B04FA02F52844151EA2F1AF
:1002D0000102F1DC30BD202A04DB203A00FA02F1F1
:1002E000002070479140C2F1200320FA03F3194324
:1002F00090407047202A04DB203A21FA02F00021C6
:10030000704721FA02F3D040C2F120029140084325
:1003100019467047064C074D06E0E06840F00103BF
:1003200094E8070098471034AC42F6D3FFF750FF2B
:100330005447020874470208B0B5002921D00023B1
:1003400002EB430C32F813E0BCF802C002332EF08B
:10035000030E2CF0030C50F80E4050F80C508B425A
:1003600040F80E5000EB0E0540F80C4000EB0C047A
:10037000D5F804C0D4F804E0C5F804E0C4F804C01B
:10038000DED3B0BD2DE9F041048816460746012AA8
:1003900098460D460CD1E4B3281D214690ED000A85
:1003A000B1EE400A013980ED000A00F10800F5D1F4
:1003B000FF2C0CDDB4F5806F10DBB4F5805F22D02C
:1003C000B4F5006F11D0B4F5806F17D021E03F2C49
:1003D00010DC102C12D0202C07D01AE0B4F5807F4E
:1003E00003D0B4F5007F0ED013E03846294600F064
:1003F000F7F80EE0402C06D0802C0AD1384629466A
:1004000000F02EF805E07A6801232846214600F026
:1004100071FBB8F1000F04D0B9892846BA68FFF71C
:100420008BFF012E1AD100EE104A002CB8EE400AC4
:1004300014D0B7EE001A81EE000A00BF95ED001A45
:1004400095ED012A20EE011A013C20EE422A85EDAD
:10045000001A85ED012A05F10805EFD1BDE8F0810C
:100460002DE9F0472DED068B038880460020D8F853
:100470000420B0EBD30F084601EB830A4FEA53097F
:1004800000F09E80D9080AEB890C00EB890E4C42E3
:10049000002700BFC3190AEB070593ED000A95ED8D
:1004A000004A30EE048A0EEB07010CEB070630EE33
:1004B000440A93ED011A93ED022A93ED033A95ED68
:1004C000015A95ED026A95ED037AD1ED000AD1ED5E
:1004D000011AD1ED022AD1ED033AD6ED004AD6ED4C
:1004E000015AD6ED026AD6ED037A31EE059A83ED14
:1004F000008A32EE06AA013433EE078A83ED019AB0
:1005000030EEA49A83ED02AA31EEA5AA83ED038A08
:1005100032EEA68A33EEA74A81ED009A31EE451AF3
:1005200081ED01AA81ED028A02EB070381ED034A06
:1005300034EEE05AD3ED000A35EEE14A07F1100738
:1005400061EE201AD3ED014A21EE241A40EE641A1E
:1005500065EE245A64EE244A00EE201A44EE605AF6
:1005600045EE204A32EE460A85ED001A33EE471A70
:10057000C5ED011A36EEE22AC6ED005A37EEE33A2F
:10058000C6ED014A93ED034A93ED026A21EE045A47
:1005900021EE061A22EE047A63EE040A00EE065AF1
:1005A00000EE441A03EE467A42EE060A85ED025A40
:1005B00085ED031A86ED027AC6ED030A7FF46AAF71
:1005C0000223494600F096FAD8F804200223504648
:1005D0004946BDEC068BBDE8F04700F08BBA000041
:1005E0002DE9F04F81B02DED0C8B90B08446008842
:1005F00091ED000A420801EB820404EB820591EDC3
:10060000011A95ED002A95ED013A30EE024A0F46A7
:1006100030EE420A05EB820631EE032A910031EEFC
:10062000431A0F9194ED003A94ED015A30EE056AA9
:10063000810871EE430A009174EE432A6FF00101C4
:1006400072EE453A01EB900A30EE450AD00034EEE6
:10065000034A6FF0070832EE052A0E9031EE031AB6
:1006600002EB420196ED007AD6ED011A36EE616A90
:1006700008EB021070EE870A4FEA810972EEC72A72
:100680000C9073EEE13A059730EE210A08EB8103F6
:1006900034EE073A6FF0030132EE212A029431EE74
:1006A000471A01EBC20E87ED003A4FF0000B87EDC1
:1006B000012A002784ED006AA7EB5A0AC4ED010A5B
:1006C00001EB8204C5ED002A0020C5ED013A86ED5C
:1006D000000A86ED011ADCF8041003950196CDF8A6
:1006E00010C006910D90C1E0C518CDF8249000EB24
:1006F0000409CDF81CA099ED006A95ED017A76EE1B
:10070000070A00EB0E01D1ED002AF246DDF830E0D9
:1007100070EEA23A089400EB0E0436EE476AD4ED70
:10072000015A73EEA53A0F9859ED011AD5ED004A1A
:1007300071EEA46A083051ED017A94ED008AC9ED9A
:10074000003A71EEE41A51ED013A76EEA33AAEF1B9
:10075000080E94ED007A32EEE59AAAF1080A33EE1B
:10076000877A083B76EE673A31EE89BA09ED017A6D
:1007700033EE887ADDF82490D6ED023AD6ED034ABE
:1007800025EE24AA0F9025EE235A0E9827EE24CAB0
:1007900008302BEE24DA0E9004EE23AA0D9804EE16
:1007A000645A183030EEE24A0D9076EEE70A82ED98
:1007B00002AA0BEE63CA82ED035A07EE23DA09F1AF
:1007C000080934EE654A70EEC80A81ED00CA01EDF1
:1007D00001DA97ED045A97ED057A63EE072A0B9F2D
:1007E00023EE053A083760EE873A64EE074A42EE98
:1007F000052A02EE473A54EE453A40EEC54ACCEDA2
:10080000022A38EE674A8CED033AC5ED013A39EE1B
:10081000615AC5ED004A9BED062A21EE027A34EEBC
:10082000464A9BED073A21EE031ADDF828B000EEA8
:10083000437ACDF830E024EE036AD64625EE033A3B
:10084000DDF81CA000EE021A0BF1100B05EE426A57
:100850000AF1010A04EE023A88ED021A88ED037AE1
:1008600084ED016A84ED003A089C083C0598BAF1D1
:10087000000F0E9A00EB070100EB020C0F9A91EDAE
:10088000020A9CED022A30EE026A024430EE420A6D
:1008900000EB090891ED031A9CED033A92ED032A4F
:1008A00031EE037A069D31EE431A0B9730EE023A91
:1008B000CDF828B0D2ED020AD8ED032A33EE624A11
:1008C00005EB070636EE603A05EB0B0736EE206ABD
:1008D000D8ED021A31EE605A36EE216A77EE423ACE
:1008E00030EE420A81ED026A31EE201A92ED036A7F
:1008F00037EE066A98ED037A35EE215A36EE076A2E
:1009000033EE612A33EEE23A30EE220A81ED036AD9
:1009100031EE611A0D9905EB010B7FF4E5AE96ED12
:10092000026A96ED037A65EE070A009D25EE065AE7
:100930000423294644EE060A04EE475AC2ED020A91
:1009400082ED035A97ED044A97ED055A23EE056AA6
:10095000069A23EE043A02EE046A02EE453A8CED62
:10096000026A8CED033A9BED062A9BED073A21EED5
:10097000034A21EE021A00EE024A00EE431A88ED05
:10098000024A88ED031A00F0B5F8049C042362685B
:100990002946029800F0AEF86268042303982946BD
:1009A00000F0A8F8626804230198294610B0BDEC55
:1009B0000C8B01B0BDE8F04F00F09CB82DE9F0437E
:1009C00081B02DED028B0023B3EB920F90460C46C5
:1009D000054669D04FEA9800474200BF95ED010AED
:1009E00020EE008A95ED000A00EE008AB0EE480A7B
:1009F0000BF0F8FBB4EEC00AF1EE10FA03D7B0EE3C
:100A0000480A0BF0EFFB84ED000A95ED030A20EE97
:100A1000008A95ED020A00EE008AB0EE480A0BF05B
:100A2000E1FBB4EEC00AF1EE10FA03D7B0EE480ACB
:100A30000BF0D8FB84ED010A95ED050A20EE008A43
:100A400095ED040A00EE008AB0EE480A0BF0CAFBEE
:100A5000B4EEC00AF1EE10FA03D7B0EE480A0BF07C
:100A6000C1FB84ED020A05F1200995ED070A20EE8D
:100A7000008A04F1100695ED060A00EE008AB0EE39
:100A8000480A0BF0AFFBB4EEC00AF1EE10FA03D740
:100A9000B0EE480A0BF0A6FB013784ED030A4D4681
:100AA00034469BD134464D4618F003001DD04642D3
:100AB00095ED010A20EE008A271D95ED000A00EE53
:100AC000008AB0EE480A0BF08DFBB4EEC00AF1EEDE
:100AD00010FA03D7B0EE480A0BF084FB013684ED20
:100AE000000A05F108053C46E2D1BDEC028B01B0DD
:100AF000BDE8F0832DE9F04F81B02DED108B96B05D
:100B0000CDE90332019004309FED020A8C46029039
:100B1000149101E0F304353F4FEADC084FEAC80ABC
:100B2000CDF81C80AAEBDC00C00008EB480E139047
:100B300008EB88024FEACC074FEA0E14D000029A65
:100B40004FEA481315904FEA08160D934FEACE0569
:100B50004FF0000BCDE90B5602EB0309159812ED8F
:100B6000011A19ED013A02EB0A0831EE035A02EBC1
:100B7000000E0B9818ED016A31EE431A91191EED23
:100B8000013A131976EE031A564636EE433A02EB53
:100B9000000A139851ED012A13ED016A104472EE18
:100BA000863A5AED014A32EEC66AE34450ED012A14
:100BB00074EEA25A3D4674EEE22A75EE634A35EEB3
:100BC000235A71EEA53A92ED002A99ED004A98ED6C
:100BD000007ADEED000AD1ED006A71EEE51A75EEDD
:100BE000235A35EE635A72EE043A32EE442A37EE57
:100BF000204A37EE607AD3ED000A76EEA07A76EEE0
:100C0000E00ADAED006A90ED008A36EE889A42ED4D
:100C1000015A76EEC86A09ED015A33EEA78A34EE1E
:100C200009AA73EEE73A34EE494A78EE0A7A38EECA
:100C30004A8A33EE62AA34EE849AC2ED007A34EE28
:100C4000C44A89ED008A73EEE14A3A4471EEA31A70
:100C500001ED019A33EE223A6AEE002AC1ED004A14
:100C600077EE663A03ED014A37EE267AC3ED001AB5
:100C700071EE626A149931EE221A0D9B23EE003A4E
:100C80008B4563EE802A27EE007A76EE433A36EE05
:100C9000033A32EE625A30EE876A32EE222A30EEA2
:100CA000C77A71EE060A32EE434A31EE461A33EE47
:100CB000022A48ED010A36EE873A88ED004A00ED37
:100CC000011A35EE631A80ED002A36EEC72A0EEDC2
:100CD000013A33EE853A8EED001A0AED012A8AEDCB
:100CE000003AB2460C9EFFF437AFBCF1400FC0F0A3
:100CF0008B810EA880E890140398002480B2019E96
:100D0000012506900798C0EBC000C000059000BF09
:100D100006980444049B03EBC4010A9491ED000A75
:100D200003EB04128DED130A92ED000A04EB44026A
:100D30008DED120A03EB441108964FEAC20A099599
:100D400003EBC20091ED004A04EB84014FEA021B61
:100D500003EB021290ED003AC80003EBC10192EDE3
:100D6000006AC4EBC4024FEAC40C91ED005AD100F2
:100D700003EBC20292ED007A0CF104024FEA041E6A
:100D80001A44D2ED000A0EF1040204301A44184449
:100D9000D2ED001A0AF10402D0ED004A0BF1040072
:100DA0004FEA44191A441844D2ED002A09F104020A
:100DB000D0ED005A081D1A441844D2ED003AD0ED87
:100DC000006AB4462B460D9D9FED921ADDE90B7625
:100DD000DDF8148010980CEB05010CEB000215985F
:100DE000DCED027A91ED028A60440E9C37EE88BAFF
:100DF0000CEB060B77EEC87A0CEB040992ED028A35
:100E000090ED029A38EE09CA0CEB070E38EE49AAAB
:100E10000CEB080A9BED028A99ED029A38EE09DA8A
:100E200038EE499A9EED028A9AED02EA38EE0EFA01
:100E30007BEE0D8A38EE4EEA7CEE0F9A3BEE4DBA11
:100E40003CEE4FCA38EEA98A38EEE9DA9CED03FA97
:100E5000D1ED038A7FEE289A3FEE68FAD2ED038A3D
:100E6000D0ED03AA78EEAABA78EEEA8ADBED03AAFF
:100E7000D9ED03CA7AEEACDA7AEEECAADEED03CA5B
:100E8000DAED03EA7CEEAEFA8CED028A7CEEEECA75
:100E900079EEEDEA3BEEEF0A79EEAD9A7BEEAFBA72
:100EA0007BEE00DA3BEE400A39EEEBBA9DED122AFA
:100EB00079EEAB9A7EEECCBA63EE8BFA3CEE2ECA9C
:100EC000CCED039A24EE0BBA62EE2DEA44EE0DFA55
:100ED00003EECDBA22EE2BDA41EEABEAC1ED02FA17
:100EE00066EE00BA81ED03BA01EEEDDA66EE0CDAD9
:100EF000CBED02EA45EE8CBA3AEE4ECA8BED03DA40
:100F000045EEC0DA3AEE0E0AC9ED02BA2CEE01AA9D
:100F100038EEECCAC9ED03DA38EEACEA77EECA8AED
:100F200077EE8A7A20EE010A2CEE01AA2EEE01CA93
:100F300039EE40EA39EE000A3FEE4A9A7AEE8CCA60
:100F40003FEE0AAA3AEECCCA37EEACFA77EEEC7A6C
:100F500078EE8CAA38EECCCA7AEE408A30EE0A0AD5
:100F600039EE4EAA9DED132A26EE808A27EE000A5E
:100F700060EEA8CA3EEE099A22EE28EA07EE278A1A
:100F800024EE8ABA06EEE70A65EE0A7A42EE0FCA46
:100F900000EECFEA05EE2ABA44EEEA7AC2ED02CAC2
:100FA00022EE89AA82ED03EA23EE099A8AED028AEB
:100FB0008AED030A80ED02BA03EE0CAAC0ED037AB3
:100FC00002EECC9A11980344149883420F988444FB
:100FD0008EED02AA8EED039AFFF4FCAE099D013559
:100FE0000798089E854206F108060A9CFFF490AE19
:100FF00011983F2803984FEAC000DDF81CC09FED10
:10100000050A03903FF688AD16B0BDEC108B01B019
:10101000BDE8F08FF304353FC8B14FF40071018093
:101020004FF4806101824FF4E07181814BF6D4115D
:1010300044F6D402C0F60101C0F60102C0E9011273
:101040004CF6D411C0F601014161002000E0FF2000
:1010500040B27047C8B14FF4806101804FF4006125
:1010600001824FF4E161818144F6544141F26C7296
:10107000C0F60101C0F60102C0E901124DF6D4111B
:10108000C0F601014161002000E0FF2040B270473E
:10109000B8B1802101804FF480710182D02181811B
:1010A00046F6544142F27C52C0F60101C0F60102FC
:1010B000C0E901124FF6D411C0F6010141610020D0
:1010C00000E0FF2040B27047B0B110210180202124
:1010D00001821421818147F2540142F21C72C0F650
:1010E0000101C0F60102C0E901124FF6D451C0F669
:1010F00001014161002000E0FF2040B27047C8B10B
:101100004FF4006101804FF4805101824FF46E6111
:10111000818147F2D40142F24472C0F60101C0F667
:101120000102C0E901124FF65461C0F601014161AC
:10113000002000E0FF2040B27047C8B14FF480713A
:1011400001804FF4007101824FF4DC7181814BF218
:10115000D40144F20452C0F60101C0F60102C0E914
:10116000011243F65461C0F602014161002000E023
:10117000FF2040B27047B0B12021018040210182A0
:10118000302181814BF6D40144F67402C0F601018E
:10119000C0F60102C0E9011244F25461C0F6020136
:1011A0004161002000E0FF2040B27047F0B581B0FF
:1011B0000446008A002B4FEA5000154620800F4657
:1011C0000ED0204639462A461E4600F057F8012325
:1011D00020462946324601B0BDE8F040FFF7D2B8BC
:1011E0000022012320463946FFF7CCF82046394635
:1011F0002A4601B0BDE8F04000F096B8B1F5007F96
:101200000DDBB1F5006F16DAB1F5007F1ED0B1F538
:10121000806F2AD141F21901C0F600010847202948
:1012200019D0402924D0B1F5807F1ED141F291011F
:10123000C0F600010847B1F5805F11D0B1F5006F2D
:1012400013D141F25501C0F60001084741F23B11AC
:10125000C0F60001084741F2C901C0F60001084785
:1012600041F2FF01C0F6000108474FF0FF30704720
:1012700041F27711C0F600010847000091ED000A25
:1012800091ED011A30EE012A038830EE411AB6EED4
:10129000000AD0F814C0581E22EE002A21EE001ACF
:1012A00082ED002A82ED011A08BF704780B501EB7C
:1012B000C00E01F108000CF108010832C3F1010C65
:1012C0000EF10403BDE8804013ED011A93ED002AEE
:1012D00090ED003A90ED014A33EE417A083031EE5C
:1012E000031A1CF1010C34EE423AA3F1080391ED0C
:1012F000005A91ED016A32EE042A01F1080107EE6D
:10130000451A07EE063A02EE461A05EE423A21EE7B
:10131000001A23EE002A82ED001A82ED012A02F162
:101320000802D1D17047000010B591ED000A91ED8F
:10133000011A30EE000AB0F800E031EE011A4069FF
:1013400001EBCE0400F1080C30EE012A083130EE3A
:10135000411AB6EE000A02F10803201F22EE002A0D
:1013600021EE001A82ED002A82ED011ACEF101026F
:1013700010ED011A90ED002A91ED003A91ED014A2D
:1013800031EE437A083131EE031A013234EE423A3B
:10139000A0F108009CED005A9CED016A32EE042A8F
:1013A0000CF1080C07EE051A07EE063A02EE061AD3
:1013B00005EE423A21EE001A23EE002A83ED001AD0
:1013C00083ED012A03F10803D2D110BD5849096801
:1013D00021F44031574AC2F804131146D1F80413DE
:1013E00042681143524A11600168496821F48071D2
:1013F0000268516001684A68016942EA0121026895
:1014000051600168496821F04071026851600168CB
:10141000496882681143026851600168896821F453
:1014200000610268916001688968C26811430268BE
:101430009160414A816A914218D00168896821F01F
:1014400070610268916001688968826A114302686C
:1014500091600168896821F04051026891600168DB
:101460008968C26A1143026891600BE0016889686B
:1014700021F07061026891600168896821F0405133
:10148000026891600168896821F002010268916038
:1014900001688A68816942EA4101026891602021FD
:1014A000095CA1B10168496841F4006102685160BA
:1014B0000168496821F460410268516001684A6826
:1014C000416A491E42EA41310268516005E0016803
:1014D000496821F40061026851600168C96A21F419
:1014E00070010268D1620168CA6A818B491E42EAB2
:1014F00001510268D1620168896821F400710268B3
:10150000916001688A6890F8301042EA41210268CF
:1015100091600168896821F48061026891600168C6
:101520008A68416942EA812102689160704700003F
:1015300004230140002001400100000F704710B556
:101540000446204602F060FB10BD000010B50248C2
:1015500007F0E6FD10BD00001C180020FEB5044693
:101560000D46002002900026022002A903462A46CA
:10157000CDE900102146084807F0ACFEBDF8080090
:10158000060ABDF808004FF47F4101EA0020064337
:101590000296BDF80800FEBD1C18002077B583B088
:1015A00004460D46BDF81460300A05904FF47F40A4
:1015B00000EA0620BDF8141008430590022005A992
:1015C00003462A46CDE900102146024807F09FFE57
:1015D00006B070BD1C1800207047704770B50446F7
:1015E0000D46164633462A4621464FF4007000F059
:1015F00001F870BD2DE9F04704460D4691469A4624
:1016000001274FF00008B4F5407F03D0B4F5007F08
:1016100000D03DE008F0E0FF002229461E4800F01F
:1016200010F91E481C490860084605F02FFA38B921
:101630000021194800F03AF90021174800F034F869
:10164000B4F5007F01D10A2600E005262A4631467E
:10165000012008F0D5FF1248816834208847804671
:1016600048F69410804508D10D48C16A3420884757
:101670000B480C490860002700E0012747B90948DA
:1016800000682B4664222146D0F800C03420E04791
:101690003846BDE8F087000038190020245C01407E
:1016A000980000202400002030B587B004460D4685
:1016B00000BF4948006840F40000474908600846F8
:1016C000006800F40000019000BF00BF00BF424866
:1016D0001438006840F040003F491439086008465B
:1016E000006800F04000019000BF00BF08150290A4
:1016F0000220039000200490022005900A2006900A
:1017000002A9364802F0DAFB00BF334814380068FB
:1017100040F080003049143908600846006800F045
:101720008000019000BF00BF4FF4004002900020F5
:10173000039004900220059002A9294802F0BEFB04
:1017400000BF25481438006840F48000224914394D
:1017500008600846006800F48000019000BF00BFE8
:1017600020492068884225D100201F494860002177
:101770001D488160C1604FF4806101614900416191
:10178000890081614911C161490201620021416200
:10179000032181620021C16201631448124908607B
:1017A00000BF08462067846300BF02F010F80E48AF
:1017B00002F064F900220F21462003F08DFB462041
:1017C00003F07AFB00220F21282003F085FB28205C
:1017D00003F072FB07B030BD4438024000180240ED
:1017E000001C0240245C01405C1A0020B8640240E6
:1017F00070B504460D460126AAB22146024805F0FE
:101800001FFB0026304670BD3819002010B5044675
:10181000094805F0A8F80948006821468269342083
:10182000904708B1012010BD012C02D1012002F027
:10183000EBF90020F7E70000381900202400002011
:10184000704770B5A2B005460C46164601A803F0D5
:10185000DDFC42F61130844205D04000844202D0C3
:10186000400084420FD14FF480100190800011900D
:1018700040F2AD1002900221049113200A9001A8B9
:1018800003F07CFE0EE04FF4801001908000119078
:101890004FF4AC7002900721049101200A9001A836
:1018A00003F06CFE22B070BD7047000030B587B009
:1018B00004460D4600BF5A48006840F400005849ED
:1018C00008600846006800F40000019000BF00BFF7
:1018D00000BF53481438006840F4807050491439F0
:1018E00008600846006800F48070019000BF00BFE7
:1018F00000BF0846006840F4807008600846006831
:1019000000F48070019000BF00BF00BF084600686F
:1019100040F4807008600846006800F48070019010
:1019200000BF00BF8020029002200390002004909E
:10193000032005900A20069002A93A4802F0BEFA58
:1019400020200290022003900020049003200590A4
:101950000A20069002A9334802F0B0FA4020029013
:101960000220039000200490032005900A20069096
:1019700002A92C4802F0A2FA102002900220039043
:1019800000200490032005900A20069002A9254813
:1019900002F094FA00BF22481438006840F4800036
:1019A0001F49143908600846006800F4800001905F
:1019B00000BF00BF1C492068884227D14FF0C0609B
:1019C0001A4948604021194881600021C1604FF4E4
:1019D0008061016149004161890081614911C161F2
:1019E0004902016204214162032181620021C16236
:1019F00001630F480D49086000BF0846E066846334
:101A000000BF01F0E4FE094802F038F800220E2180
:101A10003C2003F061FA3C2003F04EFA07B030BDE1
:101A20004438024000200240045C0140FC190020C0
:101A3000706402407CB5044600F054FA054600F09C
:101A400041FA06460020CDE900040848006800EB92
:101A5000800202EBC002064800EB82002B463246B1
:101A6000416A0248006807F09BFC7CBD54000020DE
:101A7000541B002070B504460D4608200749086035
:101A8000C020486105210548C1614FF480300349F9
:101A9000C862084603F072FD70BD00001C1C0020E7
:101AA0002DE9F04106460F461446A4F120001449E2
:101AB000096801EB4101134B03EB81018968C98877
:101AC00048430F49096801EB410103EB8101896833
:101AD0008988CD1DE91705EB5171C910084B1B68AA
:101AE00003EB4303DFF81CC00CEB83039B681B680C
:101AF00000FB01323946304600F0B8FFBDE8F08106
:101B000054000020041C002010B5094800688069BA
:101B100040F0010006490968886101221103054867
:101B200002F0D8FA01220821034802F0D3FA10BDCE
:101B30001C1B002000200240002802402DE9FF5F0E
:101B400004461546984601264FF0000900274FF03D
:101B5000000AAB4600E07F1C1BF8011B0029FAD1EC
:101B600000F0B0F93D49096801EB41013C4A02EB44
:101B7000810189688988B0FBF1FAB8F1010F06D0BC
:101B8000B8F1020F15D0B8F1030F22D10FE0AAEB84
:101B900007003249096801EB4101314A02EB81013A
:101BA00089688988484304EB500086B213E02646D2
:101BB00011E0AAEB07012948006800EB4000284A21
:101BC00002EB800080688088624201FB002086B2C0
:101BD00001E0264600BF00BF012E02DBB6F5004F34
:101BE00000DB012614E02A7830460199FFF758FF00
:101BF0001A48006800EB4000194901EB800080683A
:101C00008088304486B26D1C09F101001FFA80F90A
:101C100000F058F91149096801EB4101104A02EB43
:101C200081018968898809FB110080B20B49096824
:101C300001EB410102EB810189688988884201D367
:101C4000012000E00020297809B1012100E00021F5
:101C500008400028C7D1BDE8FF9F000054000020C5
:101C6000041C00202DE9F04F89B005460E46914630
:101C70009A460027B846BB46002008900790069079
:101C80000590049000240390029001900090A9EB2D
:101C90000500002802DDA9EB050001E0A5EB090025
:101CA00007B2AAEB0600002802DDAAEB060001E05D
:101CB000A6EB0A000FFA80F80FFA85FB30B2089005
:101CC000A94503DB01200790069003E04FF0FF30A9
:101CD00007900690B24503DB01200590049003E0D5
:101CE0004FF0FF300590049047450DDB0020079032
:101CF00004903C46384607EBD071491009B2039175
:101D0000CDF8088001970CE000200690059044462D
:101D1000404608EBD071491009B203910297CDF803
:101D20000480002000902FE01B4B1B6803EB430353
:101D3000DFF868C05CF82320089B99B21FFA8BF08B
:101D400000F02EF8DDE90210084400B20390039879
:101D5000A0420CDB0398001B00B203900798584484
:101D60000FFA80FB05990898084400B2089006987D
:101D700058440FFA80FB04990898084400B2089070
:101D80000098401C00B20090DDE900018842CBDDE4
:101D900009B0BDE8F08F000054000020041C0020B2
:101DA00030B503460C461748006800EB800101EB94
:101DB000C001154800EB81000069022810D100F035
:101DC00081F804FB003041000E48006800EB8005FC
:101DD00005EBC0050C4800EB8500406A42520FE05D
:101DE00000F070F804FB003081000648006800EB4A
:101DF000800505EBC005044800EB8500406A4250B1
:101E000030BD000054000020541B00202DE9FC4789
:101E100004460D461746984600BF2749096801EB5E
:101E20004101264A52F8210000F004FA22480068D5
:101E300000EB800101EBC001214800EB810000694B
:101E4000022811D100F03EF800FB05411A48006855
:101E500000EB800202EBC002194800EB8200406AEE
:101E6000022202FB010610E000F02CF800FB054105
:101E70001148006800EB800202EBC002104800EB42
:101E80008200406A042202FB010600F01BF8A0EB6E
:101E900007090948006800EB4000084951F8200094
:101EA00043463A463146CDE900900348006807F0C2
:101EB00077FABDE8FC87000054000020041C0020D5
:101EC000541B00200548006800EB800101EBC001B5
:101ED000034800EB8100806A704700005400002036
:101EE000541B00200548006800EB800101EBC00195
:101EF000034800EB8100C06A7047000054000020D6
:101F0000541B002010B52821254841610921816119
:101F10003521C1610B21016240F21B11816240F247
:101F20001521416240F21D11016340F23521C16269
:101F30000021FFF79FFD4FF4F071194801664FF43F
:101F400088714166002180F8341080F8351080F8DF
:101F50003610002012494860002111488160C1609C
:101F6000016110480E490860084602F0BBFD18B92F
:101F700000210B4800F066F8094802F031FE01220A
:101F80001103094802F0A6F801220821074802F0CF
:101F9000A1F800F05BF9064800F03EF9002010BD02
:101FA0001C1B002000680140002002400028024065
:101FB0002C00002030B58DB004460D460020009066
:101FC000FFF780FF019000200290FFF78BFF039046
:101FD000002004900995FF200590002006908DF8C0
:101FE000300000218DF831108DF832104FF4C060B0
:101FF000079007200890FFF765FF0A90FFF772FF30
:102000000B90224669460C4802F03CFD4FF0FF3031
:1020100004EB4401094A02EB81014860084804EBE3
:10202000440102EB810188604FF07F4004EB4401E2
:1020300042F821000DB030BD1C1B0020041C002004
:102040002C00002030B587B004460D4600BF624822
:10205000006840F08060604908600846006800F051
:102060008060019000BF00BF00BF5B48143800686B
:1020700040F400005849143908600846006800F42C
:102080000000019000BF00BF00BF0846006840F09C
:10209000100008600846006800F01000019000BFC2
:1020A00000BF00BF0846006840F0400008600846D6
:1020B000006800F04000019000BF00BF00BF08466C
:1020C000006840F4807008600846006800F4807082
:1020D000019000BF00BF00BF0846006840F40070D8
:1020E00008600846006800F40070019000BF00BF5F
:1020F00000BF0846006840F4806008600846006839
:1021000000F48060019000BF00BF00BF0846006877
:1021100040F4807008600846006800F48070019008
:1021200000BF00BF00BF0846006840F48060086040
:102130000846006800F48060019000BF00BF1020D6
:1021400002900220039000200490022005900E20AF
:10215000069002A9214801F0B1FE4FF48050029090
:10216000022003900920069002A91D4801F0A6FE56
:102170004FF466400290022003900E20069002A9C0
:10218000184801F09BFE4EF6FF700290022003906B
:102190000E20069002A9144801F090FEF72002904C
:1021A000022003900E20069002A9104801F086FE3E
:1021B0004FF4805002900120039002A9094801F0D9
:1021C0007DFE082002900120039002A9074801F03B
:1021D00075FE07B030BD00004438024000100240D8
:1021E0000018024000200240002402400028024063
:1021F0000149086070470000540000200449096844
:1022000001EB4101034A02EB810148607047000085
:1022100054000020041C00200449096801EB41011E
:10222000034A02EB810188607047000054000020DF
:10223000041C00200349096801EB4101024A42F8ED
:102240002100704754000020041C002010B51E48D7
:102250001E49086002201E490860072048600420CB
:1022600088600720C86002200861486188610020FA
:10227000164948600021154881600421C160102181
:10228000016140214161890081610021C1614FF4F8
:1022900000610162490041620021816200F068F83A
:1022A0000B490A4804F03EFE18B1012009490870A4
:1022B00002E000200749087040F2036000F00CF8CB
:1022C0000448007810BD0000400100A0A01C0020C0
:1022D000D41C00205800002038B50446002000908F
:1022E00001202149086010204860012088600020FA
:1022F000C8604FF6FF721D4804F04DFE012001F04A
:1023000083FC022018490860102048600120886082
:102310000020C8604FF6FF72144804F03CFE032012
:102320001149086010204860082088600020C860BB
:102330004FF6FF720D4804F02EFE4FF40870009027
:102340000420094908601020486001208860009836
:10235000C8604FF6FF72054804F01DFE2146034891
:1023600004F005FE38BD0000F01C0020A01C002079
:1023700030B587B004460D4600BF6648006840F09F
:102380000100644908600846006800F001000190FF
:1023900000BF00BF00BF5F480838006840F48000FD
:1023A0005C49083908600846006800F48000019024
:1023B00000BF00BF00BF0846006840F0040008608E
:1023C0000846006800F00400019000BF00BF00BF95
:1023D0000846006840F0080008600846006800F001
:1023E0000800019000BF00BF00BF0846006840F031
:1023F000100008600846006800F01000019000BF5F
:1024000000BF00BF0846006840F020000860084692
:10241000006800F02000019000BF00BF00BF084628
:10242000006840F0400008600846006800F0400086
:10243000019000BF00BF00BF0846006840F0800068
:1024400008600846006800F08000019000BF00BFEF
:102450000220039001200490022005900C20069099
:102460000820029002A92C4801F028FD4CF20370CC
:10247000029002A9294801F021FD4FF683700290D5
:1024800002A9274801F01AFD4FF63F00029002A969
:10249000244801F013FD48F23310029002A92248AB
:1024A00001F00CFD2820029002A9204801F006FD51
:1024B00000201F49486080211D4881608900C1605B
:1024C0004900016189004161890081610021C16188
:1024D0004FF4003101620021416203218162002139
:1024E000C162016313481249086000BF08462063B7
:1024F000846300BF01F06BF90D4801F0BFFA0022C0
:102500000F21382002F0E8FC382002F0D5FC07B09B
:1025100030BD00003838024000080240000C024084
:10252000001002400014024000180240001C02404B
:10253000001D0020106402402DE9F04190B00546D6
:102540004FF0000800200390029001907E48006840
:1025500001697E480078884728702878002870D064
:102560000024E4E004A800EB440207A800EB4401C7
:102570007548006843697548007898477448007842
:1025800001280BD107A830F814000DA921F8140078
:1025900004A830F814000AA921F814006C48007847
:1025A00000F0020038B107A830F81400C0F58050E0
:1025B0000DA921F814006648007800F0040038B135
:1025C00004A830F81400C0F580500AA921F81400BE
:1025D0005F48007800F0080058B107A830F81400F0
:1025E0000AA921F8140004A830F814000DA921F854
:1025F00014000DA830F81400564951F824108842F0
:1026000007D90DA830F81400524951F82410401A87
:1026100006E0504850F824000DA931F81410401A73
:1026200086B20AA830F814004B4951F824108842A9
:1026300008D90AA830F81400474951F82410401A64
:1026400007E07CE0444850F824000AA931F814104F
:10265000401A87B2F01905280BDD0DA830F81400D8
:102660003C4941F824000AA830F814003A4941F8DE
:1026700024003648007870280DD10DA830F81410C9
:10268000A81C20F814100AA830F8141005F10C004A
:1026900020F8141016E02F4850F824002F4909881C
:1026A0004843C0F30F31A81C20F814102A4850F8F2
:1026B00024002B4909884843C0F30F3105F10C0071
:1026C00020F8141001A802AB03AA214600901F486D
:1026D000007809F0F5FE0398C1B205F11600015526
:1026E0000298C1B205F120000155019830B10128CE
:1026F00009D002280CD0032814D10EE0012105F1E5
:102700001B00015511E0022105F11B0001550CE0F1
:10271000032105F11B00015507E0002105F11B0015
:10272000015502E04FF0010800BF00BF641C28788B
:10273000A0423FF617AF284600F014F88046404606
:1027400010B0BDE8F08100005C00002065000020B2
:1027500064000020C01D0020D41D00206000002067
:102760006200002038B5044600200090002569462C
:102770001748007809F096FE0098182816D005DC56
:1027800058B110280CD014281CD10CE01C2810D0F3
:10279000402811D0492815D111E00020A06213E093
:1027A0000120A06210E00220A0620DE00320A062E0
:1027B0000AE00420A06207E00520A06204E00620F1
:1027C000A06201E0012500BF00BF284638BD00001F
:1027D0006500002070B504460D46002610480480B0
:1027E0001048058010480168702088470E484168ED
:1027F0007020884751280FD10B480C490860702081
:102800000B49087008200B49087008480068C16827
:1028100007480078884700E00326304670BD000076
:102820006000002062000020680000205C000020A2
:10283000650000206400002000BFFEE72DE9F041A4
:1028400005460E46174600243A4631462846FEF70E
:10285000A5FE2046BDE8F08110B5024800F082FDDB
:1028600010BD0000980100202DE9F0470C461746E6
:102870009C46DDF82080D0F80090D9F8449009F00B
:10288000404948EA0C4A49EA0A09D0F800A0CAF8C7
:102890004490D0F80090C9F83C70D0F80490B9F595
:1028A000403F4ED104F07F4604F47F0104F47F42A0
:1028B000E3B2D0F80890B9F1000F06D142EA01095D
:1028C00049EA060949EA030536E0D0F80890B9F16B
:1028D000010F04D142EA010949EA03052CE0D0F8CE
:1028E0000890B9F1020F09D1C90C920ADB084FEA2E
:1028F000421949EAC12949EA03051DE0D0F80890C8
:10290000B9F1030F0CD1F60FC90CD20ADB084FEA5C
:10291000421949EA812949EAC63949EA03050BE027
:10292000360F090D120B1B094FEA021949EA01295A
:1029300049EA063949EA0305D0F80090C9F8385049
:1029400003E0D0F80090C9F80C40BDE8F087000023
:1029500010B5024800F072FF10BD00008C0400208A
:102960000146087810381823B0FBF3F20848805C61
:10297000C865032A05D908686FF30900001D88653A
:1029800003E008686FF309008865886D70470000F0
:1029900070DA0008014600208A6A8B69CBB932B12F
:1029A000012A0DD0022A03D0032A10D10EE000BF65
:1029B000CB6A03F08073B3F1807F00D1012007E080
:1029C000CB6AB3F1C07F00D1012001E000E000BF7D
:1029D00034E08B69B3F5005F1AD132B1012A07D018
:1029E000022A03D0032A11D10AE000BF01200EE021
:1029F000CB6A03F08073B3F1807F00D1012006E041
:102A0000CB6AB3F1C07F00D1012000E000BF15E028
:102A100032B1012A05D0022A04D0032A0CD103E0E6
:102A200000BF00BF012008E0CB6A03F08073B3F160
:102A3000807F00D1012000E000BF00BF704730B5AB
:102A40000468246824F4802405682C6004686360AA
:102A50008468402C04D10468A2600468E16003E04B
:102A60000468A1600468E26030BD70472DE9FC4F46
:102A70000746894692464FF0000800263A4800680B
:102A800000EB4000394901EB80008068B0F806B0E7
:102A90003548006800EB400001EB800080688588C5
:102AA000E81DC11700EB5171C910C5EBC101C9B2D6
:102AB000019100BF54E0E81DC11700EB5171C9102E
:102AC00001FB08A4C11700EB5171C910012904D002
:102AD000022905D0032909D109E0207800900FE0F0
:102AE0006078217840EA0120009009E000BF20785A
:102AF0000004617840EA0120A1780843009000BFFB
:102B000000BF002624E0A91B01980844401E0121B3
:102B100001FA00F00099084060B11349096801EB1F
:102B20004101124B53F82120B91988B24946FFF7E9
:102B300037F90CE00C49096801EB41010B4B03EB41
:102B400081014A68B91988B24946FFF729F9761C0C
:102B5000AE42D8D309F101001FFA80F908F101084B
:102B6000D845A8D3BDE8FC8F54000020041C0020E9
:102B7000704730B50246002300240868012816D0AB
:102B800013686FF30E03D1E901052843CD6828438C
:102B90000D6928434D6928438D692843CD69284331
:102BA0000D6A28434D6A28430343136019E01368F4
:102BB00023F4F843D1E9070528434D6A284303432A
:102BC00054686FF30E04D1E901052843CD6828430A
:102BD0000D6928434D6928438D69284304431360D8
:102BE0005460002030BD0246506940EA4100506107
:102BF0000020704718B5034600200090D1E900047A
:102C000020438C68641E40EA4410CC6840EA4420AB
:102C1000009000981861002018BD000070B50346B0
:102C2000154600220024012D1FD09A6802F0704240
:102C30000868401E4E68761E40EA06168868401EE8
:102C400046EA0026C868401E46EA0036088A401E4A
:102C500046EA0046888A401E46EA0056087E401E24
:102C600046EA006002439A6022E09A6811480240F6
:102C7000C868401E0603888A401E46EA0050024388
:102C8000DC6804F070440868401E4E68761E40EA16
:102C900006168868401E46EA0026088A401E46EA54
:102CA0000046087E401E46EA006004439A60DC60ED
:102CB000002070BDFF0F0FFF18B5024600200090E6
:102CC00000BF92F83C00012801D1022018BD01206C
:102CD00082F83C0000BF0868092822D91068C06843
:102CE0000B780A3B03EB43040723A3409843136884
:102CF000D860594B0868984207D11068C0680B7AB1
:102D000040EA03601368D8601FE00B780A3B03EBCE
:102D10004303886898401368DB6818431368D860D9
:102D200013E0106800690B7803EB43040723A3400A
:102D30009843136818610B7803EB43038868984045
:102D400013681B691843136818614868072817D26D
:102D50001068406B0B795B1E03EB83041F23A340B9
:102D6000984313685863088880B20B795B1E03EBA5
:102D70008303984013685B6B18431368586331E012
:102D800048680D2817D21068006B0B79DB1F03EB26
:102D900083041F23A340984313681863088880B2F4
:102DA0000B79DB1F03EB8303984013681B6B1843FD
:102DB0001368186316E01068C06A0B790D3B03EBCB
:102DC00083041F23A34098431368D862088880B205
:102DD0000B790D3B03EB830398401368DB6A1843C0
:102DE0001368D8621D4B1068984208D108681228F1
:102DF00005D11B48006840F48000C3F80403174B5A
:102E00001068984220D1144B0868984202D0086894
:102E1000112819D11248006840F40000104B1860C6
:102E20000D4B086898420FD10E4800680E4BB0FB5E
:102E3000F3F000EB80004000009002E00098401E9C
:102E4000009000980028F9D100BF002082F83C00D3
:102E500000BF00BF3AE70000120000100020014050
:102E6000042301402000002040420F0070B50446BA
:102E700000250CB9012070BD1549A06A884200D018
:102E800000BF206C30B9204600F024F800206064B8
:102E900084F83C00206C00F0100088B9206C20F40D
:102EA000885040F0020020642046FEF78FFA002090
:102EB0006064206C20F0020040F00100206400E01B
:102EC000012500BF002084F83C0000BF2846D2E75F
:102ED0000100000F10B586B00446142101A8FDF7CB
:102EE000D9F92349206888423FD100BF21480068B2
:102EF00040F480601F4908600846006800F4806064
:102F0000009000BF00BF00BF1A481438006840F0AE
:102F100020001849143908600846006800F02000B5
:102F2000009000BF00BF00BF0846006840F00100ED
:102F300008600846006800F00100009000BF00BF74
:102F40004FF4F8600190032002900020039001A943
:102F5000094800F0B3FF01200190032002900020F7
:102F6000039001A9054800F0A9FF06B010BD0000BC
:102F70000022014044380240001402400000024098
:102F800070B503460C4600201F2100BF0D1EA1F1A5
:102F9000010106D001F01F060125B5402540002D96
:102FA000F4D08AB1082A0BD0102A05D0182A0CD1E7
:102FB000072900D301200AE0082900D3012006E0F8
:102FC000102900D3012002E001E0012000BF00BF72
:102FD00040B91D686C611D68AD6825F01805154382
:102FE0001E68B56070BD000010B504460CB9012024
:102FF00010BD607F20B900202077204600F036F811
:1030000002206077207948B9174821684861206814
:10301000806820F018002168886007E02046D4E925
:103020000212FFF7ADFF08B10120E1E7607920B996
:103030004FF0FF302168086102E0216820690861D3
:103040002068806820F0600061690843216888601A
:103050002068806820F08000A169084321688860AA
:10306000012060770020C3E7B71DC10408B5094AF5
:10307000016891420DD100BF0749096841F48051B0
:10308000054A11601146096801F48051009100BFA2
:1030900000BF08BD003002403038024010B5044681
:1030A0000CB9012010BD94F8350010B9204600F08D
:1030B00041F8022084F83500206800681C49084067
:1030C00021680860616960680843E1680843216914
:1030D0000843A1680843A1690843216A0843616A5B
:1030E0000843A16A0843E16A0843216B0843216849
:1030F0000968084321680860606810280BD1217FA7
:10310000607F41EA0021A07F41EA0041E07F41EA7F
:103110000060216888612068C06840F01E00216856
:10312000C8600020E064012084F835000020B9E781
:1031300007F0E0FF10B586B00446142101A8FDF7A2
:10314000A9F84D49206888427ED100BF4B480068ED
:1031500040F00100494908600846006800F001009D
:10316000009000BF00BF00BF081F006840F01000C3
:10317000091F08600846006800F01000009000BFBA
:1031800000BF00BF0846006840F00800086008461D
:10319000006800F00800009000BF00BF00BF0846B4
:1031A000006840F0400008600846006800F04000F9
:1031B000009000BF00BF00BF0846006840F08000DC
:1031C00008600846006800F08000009000BF00BF63
:1031D00000BF0846006840F001000860084600682B
:1031E00000F00100009000BF00BF602001900220AD
:1031F00002900020039004900D20059001A9204822
:1032000000F05CFE08200190022002900020039054
:1032100004900D20059001A91A4800F04FFE4FF4CC
:1032200000700190022002900020039004900D2075
:10323000059001A9144800F041FE4FF4BC400190F4
:1032400002200290002000E014E0039004900D2082
:10325000059001A90D4800F031FE50200190022098
:1032600002900020039004900D20059001A90848C9
:1032700000F024FE06B010BD0000055034380240B6
:1032800000100240000C024000180240001C0240E6
:10329000000002407047000070B502460C465068BE
:1032A000B0F5403F02D0506800B100BF00BF92F8B7
:1032B0003800012801D1022070BD012082F83800B9
:1032C00000BF022082F8390002F1180000EB04115F
:1032D0000E89486840EA0643214D48680A2802D012
:1032E0004868092804D1C86800F07F40034302E021
:1032F000087B43EA0063A4B91068406AA8431843F6
:103300001668706208681668B06148680A2802D0BA
:103310004868092819D1C86820F07F401668B06253
:1033200013E01068C069A84318431668F061086884
:103330001668306148680A2802D04868092804D114
:10334000C86820F07F4016683062012082F839009A
:1033500000BF002082F8380000BF00BFACE70000CB
:103360000F0003FF70B504462068456820680668B2
:1033700005F00100E0B106F48070C8B12068006873
:1033800020F4807021680860E06B40F00100E06389
:10339000012021688860042084F8390000BF0020E3
:1033A00084F8380000BF606910B120466169884721
:1033B00005F02000E0B106F40050C8B120680068B4
:1033C00020F4005021680860202021688860E06BAC
:1033D00040F00200E063042084F8390000BF0020C0
:1033E00084F8380000BF606910B1204661698847E1
:1033F00005F00800E0B106F40060C8B1206800687C
:1034000020F4006021680860082021688860E06B73
:1034100040F00400E063042084F8390000BF00207D
:1034200084F8380000BF606910B1204661698847A0
:1034300005F0040070B106F4806058B1206800689F
:1034400020F480602168086004202168886020469C
:1034500000F06BF805F00200D0B106F40070B8B1CE
:103460002068006820F4007021680860022021684C
:103470008860E06BE063012084F8390000BF002021
:1034800084F8380000BF206910B1204621698847C0
:1034900005F01000C0B106F48050A8B120680068A3
:1034A00020F4805021680860102021688860E06B5B
:1034B000E063012084F8390000BF002084F8380060
:1034C00000BF2046FFF7E6FE70BD10B504460CB9FC
:1034D000012010BD94F8390028B9002084F8380084
:1034E000204600F023F8022084F8390020680068A4
:1034F00020F4403061680843216808602068406B10
:1035000020F00700A1680843216848632068006C28
:103510006FF30D00E1680843216808640020E06350
:10352000012084F839000020D3E7704738B50446FD
:103530000D492068884215D100BF0C48006840F44E
:1035400000000A4908600846006800F40000009086
:1035500000BF00BF002211465A2001F0BDFC5A20D6
:1035600001F0AAFC38BD000000B002403038024033
:10357000F8B504460D46002000902068006800F071
:103580000100002843D000F0ABFD064639E020687A
:1035900040680090009800F02100E0B1009800F031
:1035A000200018B1E06B40F00200E063009800F0EA
:1035B000010018B1E06B40F00100E06321202168B8
:1035C0008860042084F8390000BF002084F83800A7
:1035D00000BF0120F8BD681C98B100F081FD801B80
:1035E000A84200D86DB9E06B40F02000E0630320F2
:1035F00084F8390000BF002084F8380000BF0320A1
:10360000E8E72068406800F002000028BFD020688A
:10361000C06900F020072068406A00F020000743DE
:10362000002F4BD000F05CFD064641E0206840686A
:103630000090009800F0290020B3009800F00800E6
:1036400018B1E06B40F00400E063009800F0200047
:1036500018B1E06B40F00200E063009800F0010058
:1036600018B1E06B40F00100E06329202168886018
:10367000042084F8390000BF002084F8380000BF1F
:103680000120A7E7681C98B100F02AFD801BA84222
:1036900000D86DB9E06B40F02000E063032084F8AF
:1036A000390000BF002084F8380000BF032091E7F4
:1036B0002068406800F010000028B7D01220216870
:1036C0008860012084F8390000BF002084F83800A9
:1036D00000BF00BF7EE72DE9F84304460D461646BD
:1036E0001F46DDF8208000BF94F83800012802D181
:1036F0000220BDE8F883012084F8380000BF0220D2
:1037000084F839003B46324629462046CDF80080F1
:10371000FFF7AAF82068006840F0010021680860FF
:103720000020E6E770B50446A56D00F0D9FC06461A
:1037300094F83500022808D08020606500BF002082
:1037400084F8340000BF012070BD2068006820F0BC
:103750001600216808602068406920F08000216818
:103760004861206C08B9A06C28B12068006820F07E
:103770000800216808602068006820F001002168C6
:1037800008600FE000F0ACFC801B05280AD920205F
:10379000606500BF002084F8340000BF032084F877
:1037A0003500D1E72068006800F001000028E9D169
:1037B00094F85C103F208840A86000BF002084F887
:1037C000340000BF012084F835000020BCE770B54C
:1037D00004460CB9012070BD94F83500022800D1D0
:1037E000F9E72068006820F00100216808600020E7
:1037F0002168086021684860216888602168C86085
:10380000216808612120216848612046FFF7A8F857
:10381000054694F85C103F208840A8600020E063D3
:1038200020646064A064E0642065606584F835000D
:1038300000BF84F8340000BF00BFCCE7F8B50446F1
:10384000002000908C4800684FF41651B0FBF1F74F
:10385000A56D2E6894F85C1008208840304098B11F
:103860002068006800F0040070B12068006820F053
:1038700004002168086094F85C1008208840A86063
:10388000606D40F00100606594F85C100120884094
:10389000304068B12068406900F0800040B194F881
:1038A0005C1001208840A860606D40F002006065F7
:1038B00094F85C1004208840304068B120680068AB
:1038C00000F0020040B194F85C1004208840A86029
:1038D000606D40F00400606594F85C101020884032
:1038E000304078B32068006800F0080050B394F8C6
:1038F0005C1010208840A8602068006800F48020D8
:1039000080B12068006800F4002028B9206CC8B19C
:103910002046216C884715E0A06C98B12046A16C28
:1039200088470FE02068006800F4807028B920689C
:10393000006820F0080021680860206C10B1204663
:10394000216C884794F85C10202088403040002883
:1039500065D02068006800F0100000285FD094F85F
:103960005C1020208840A86094F83500052828D1F4
:103970002068006820F0160021680860206840690F
:1039800020F0800021684861206C08B9A06C28B143
:103990002068006820F008002168086094F85C1036
:1039A0003F208840A86000BF002084F8340000BF9A
:1039B000012084F83500206D10B12046216D884724
:1039C000F8BD2068006800F4802080B1206800689D
:1039D00000F4002028B9606C10B12046616C884763
:1039E0001DE0E06BD8B12046E16B884717E0206806
:1039F000006800F4807068B92068006820F010004A
:103A00002168086000BF002084F8340000BF012056
:103A100084F83500E06B10B12046E16B8847606D9B
:103A200038B3606D00F00100F0B1052084F8350076
:103A30002068006820F001002168086000BF00983D
:103A4000401C0090B84200D905E02068006800F0F2
:103A500001000028F3D100BF00BF002084F834002B
:103A600000BF012084F83500E06C10B12046E16C05
:103A7000884700BFA4E70000200000202DE9F041A6
:103A80000446002500F02CFB074614B90120BDE8D0
:103A9000F081606A00B100BF00BF002084F83400EC
:103AA00000BF022084F835002068006820F0010083
:103AB000216808600AE000F013FBC01B052805D947
:103AC00020206065032084F83500E0E72068006866
:103AD00000F001000028EED120680568214805406B
:103AE000D4E901010843E168084321690843616999
:103AF0000843A1690843E1690843216A0843054373
:103B0000606A042803D1D4E90B0108430543206807
:103B100005602068456925F00705606A0543606A0D
:103B200004280DD1A06A0543E06A48B12046FEF79B
:103B300031FF28B140206065012084F83500A6E7F8
:103B4000206845612046FEF70BFF064694F85C109E
:103B50003F208840B06000206065012084F8350077
:103B6000002094E73F8010F02DE9F04704460D4611
:103B700016461F464FF00008D4F8589000BF94F83E
:103B80003400012802D10220BDE8F087012084F82A
:103B9000340000BF94F8350001282BD1022084F8AE
:103BA0003500002060653B46324629462046FEF738
:103BB00046FF94F85C103F208840C9F80800206850
:103BC000006840F01600216808602068406940F0F5
:103BD000800021684861206C28B12068006840F0AE
:103BE0000800216808602068006840F00100216832
:103BF000086006E000BF002084F8340000BF4FF0EA
:103C000002084046C0E7000070B5044600F068FABC
:103C100006462546681C10B104480078054400BFDC
:103C200000F05EFA801BA842FAD370BD1C00002091
:103C300000B587B0142102A8FCF72CFB37480068B8
:103C400008B107B000BD01203449086000BF344806
:103C5000006840F00100324908600846006800F042
:103C60000100019000BF00BF4FF683700290022058
:103C7000039000200490032005900C20069002A9D8
:103C8000284800F01BF948F23310029002200390FC
:103C900000200490032005900C20069002A92248E1
:103CA00000F00CF94CF20370029002200390002007
:103CB0000490032005900C20069002A91B4800F0F8
:103CC000FDF84FF63F000290022003900020049080
:103CD000032005900C20069002A9154800F0EEF88C
:103CE00028200290022003900020049003200590D9
:103CF0000C20069002A90F4800F0E0F8082002907E
:103D00000220039000200490032005900C200690D0
:103D100002A9094800F0D2F800BF92E7080000208D
:103D2000383802400010024000180240000C0240E7
:103D300000140240001C024000080240F0B50C468E
:103D400000250022002300219CE0012606FA01F54F
:103D500004EA0502AA427CD14C4E8F0856F827305F
:103D60008E07370F0F26BE403340494EB04201D177
:103D700000262DE0474EB04201D1012628E0464EF4
:103D8000B04201D1022623E0444EB04201D10326C5
:103D90001EE0434EB04201D1042619E0414EB0422C
:103DA00001D1052614E0404EB04201D106260FE0B5
:103DB0003E4EB04201D107260AE03D4EB04201D14D
:103DC000082605E03B4EB04201D1092600E00A2654
:103DD0008F073F0FBE409E4222D18E07370F0F261E
:103DE00006FA07F3294E8F0856F827609E43274F9F
:103DF0004FEA910C47F82C602F4E366896432E4FB1
:103E00003E603E1D366896433F1D3E603E1D36684F
:103E100096433F1D3E603E1D366896433F1D3E6003
:103E200006684FEA410C032707FA0CF7BE43066009
:103E3000CF0800F1200656F827604F074FEAD76CED
:103E40000F2707FA0CF7BE434FEAD10C00F1200709
:103E500000E016E047F82C6086684FEA410C032723
:103E600007FA0CF7BE438660466801278F40BE43C1
:103E70004660C6684FEA410C032707FA0CF7BE43B9
:103E8000C660491C1029FFF460AFF0BD083801403E
:103E9000000002400004024000080240000C024002
:103EA000001002400014024000180240001C0240B2
:103EB0000020024000240240003C0140F8B50246C8
:103EC0000B46002100250024002000BFE4E001266D
:103ED00006FA01F51E6806EA0504AC4271D15E6877
:103EE000022E02D05E68122E13D1CF0802F12006F6
:103EF00056F827004E07F70E0F26BE40B0434F0777
:103F0000FF0E1E69BE403043CF0802F1200646F87E
:103F1000270010684F000326BE40B0431E7906F00C
:103F200003064F00BE40304310605E68012E08D08B
:103F30005E68022E05D05E68112E02D05E68122ED9
:103F400013D190684F000326BE40B0434F00DE6897
:103F5000BE4030439060506801268E40B0431E79C9
:103F6000C6F300168E4030435060D0684F000326E1
:103F7000BE40B0434F009E68BE403043D0605E6894
:103F800006F08056B6F1805FA8D100BF444E366877
:103F900046F48046424F3E603E46366806F4804610
:103FA000009600BF00BF3F4E8F0856F827008E07CF
:103FB000370F0F26BE40B0433B4EB24202D100261F
:103FC0002EE068E0394EB24201D1012628E0384E99
:103FD000B24201D1022623E0364EB24201D103267D
:103FE0001EE0354EB24201D1042619E0334EB242F2
:103FF00001D1052614E0324EB24201D106260FE06F
:10400000304EB24201D107260AE02F4EB24201D112
:10401000082605E02D4EB24201D1092600E00A260D
:104020008F073F0FBE4030431E4E8F0846F82700D3
:10403000274E3068A0435E6806F48036B6F5803FB0
:1040400000D12043224E3060361D3068A0435E68A8
:1040500006F40036B6F5003F00D120431C4E361D55
:104060003060361D3068A0435E6806F48016B6F5F1
:10407000801F00D12043164E08363060361D306850
:10408000A0435E6806F40016B6F5001F00D1204379
:104090000F4E0C363060491C1029FFF418AFF8BDE4
:1040A0004438024008380140000002400004024049
:1040B00000080240000C02400010024000140240C0
:1040C00000180240001C0240002002400024024070
:1040D000003C01400AB1816101E00B04836170473B
:1040E00001480068704700001400002070477047C6
:1040F00070472DE9F0410446D4F800804646206818
:1041000007F09AFE012871D1206807F0F7FF08B97F
:10411000BDE8F081206807F0F1FF00F40010B0F571
:10412000001F03D14FF4001021684861206807F098
:10413000E5FF00F48010B0F5801F03D14FF480102C
:1041400021684861206807F0D9FF00F08060B0F175
:10415000806F03D14FF0806021684861206807F0CC
:10416000CDFF00F00200022801D1216848612068DB
:1041700007F0C4FF00F00050B0F1005F10D1D6F896
:10418000400420F02E00C6F840042046FFF7AFFFA1
:104190000121206807F090FF4FF00050216848612E
:1041A000206807F0ABFF00F08070B0F1807F02D193
:1041B000204604F036FD206807F0A0FF00F008005C
:1041C000082805D1204600F0D5F80820216848616C
:1041D000206807F093FF00F00070B0F1007F27D156
:1041E000206807F0E9FE074600251AE035E005F0F3
:1041F0000F0101208840384090B106F5A06000EB27
:104200004510006800F40040B0F5004F04D1E9B259
:10421000204603F0A9FF03E0E9B2204604F05CFA6F
:104220006D1CA068A842E2D84FF000702168486178
:10423000206807F063FFC0F3001070B12068806948
:1042400020F0100021688861204604F05BFD2068A2
:10425000806940F010002168886100BF58E710B500
:104260008AB0044614B901200AB010BD94F8B9020E
:1042700028B9002084F8B802204600F023F8032073
:1042800084F8B902206807F07DFD282204F11001AE
:104290006846FBF7E6FF94E80F0007F011FD0121E7
:1042A000206807F041FF282204F110016846FBF75F
:1042B000D8FF94E80F0007F087FE012084F8B902C8
:1042C0000020D1E710B588B00446142103A8FBF7FD
:1042D000E1FF2068B0F1A04F44D100BF2248006840
:1042E00040F00100204908600846006800F0010025
:1042F000029000BF00BF4FF4E050039002200490F2
:1043000000200590032006900A20079003A9174873
:10431000FFF7D4FD00BF1448001D006840F0800086
:104320001149091D08600846006800F080000290ED
:1043300000BF00BF0C481430006840F480400A49B8
:10434000143108600846006800F48040019000BF06
:1043500000BF00BF00221146432000F0BDFD4320F6
:1043600000F0AAFD08B010BD303802400000024045
:10437000704770477047024692F8410020282DD1BF
:1043800000BF92F84000012801D1022070470120AF
:1043900082F8400000BF242082F8410010680068C5
:1043A00020F00100136818601068006820F4805045
:1043B0001368186010680068084313681860106874
:1043C000006840F0010013681860202082F8410066
:1043D00000BF002082F8400000BFD7E70220D5E7E9
:1043E00010B502460B4692F8410020282AD100BFA2
:1043F00092F84000012801D1022010BD012082F86E
:10440000400000BF242082F841001068006820F0BE
:104410000100146820601068016821F4706141EAAD
:104420000321106801601068006840F00100146802
:104430002060202082F8410000BF002082F8400068
:1044400000BFDAE70220D8E710B504460CB9012016
:1044500010BD242084F841002068006820F001008D
:1044600021680860204600F00FFA0020606484F89C
:104470004100206384F8420000BF84F8400000BF80
:1044800000BFE5E7014691F84100704710B50446CA
:104490000CB9012010BD94F8410028B9002084F81F
:1044A0004000204600F01CFA242084F841002068D7
:1044B000006820F0010021680860606820F07060EA
:1044C000216808612068806820F4004021688860C5
:1044D000E068012805D1A06840F4004021688860A8
:1044E00004E0A06840F4044021688860E068022885
:1044F00002D180022168486020684068134908435F
:10450000216848602068C06820F400402168C860C5
:10451000D4E904010843A16940EA01202168C86088
:10452000D4E907010843216808602068006840F06A
:1045300001002168086000206064202084F84100A8
:104540000020206384F8420000BFA3E7008000023F
:104550002DE9FC5F0446894692469B46DDE90C78CE
:104560000E9E94F8410020287ED117B1B8F1000FBB
:1045700005D14FF4007060640120BDE8FC9F00BFCE
:1045800094F84000012801D10220F6E7012084F8C8
:10459000400000BFFFF7A4FD054619230122D10307
:1045A0002046009504F02AFD08B10120E5E722200D
:1045B00084F84100402084F8420000206064676273
:1045C000A4F82A8060635B46524649462046CDE9FE
:1045D000006504F07DFC30B100BF002084F840008D
:1045E00000BF0120C9E7608DFF280CD9FF2020857E
:1045F0003D48009094F828204FF0807349462046AB
:1046000004F0E2FC0BE0608D20853748009094F8C0
:1046100028204FF000734946204604F0D5FC00BF27
:104620003346002204212046009504F0E7FC08B13F
:104630000120A2E72068406A616A0870606A401C35
:104640006062208D401E2085608D401E6085608DDB
:1046500048B3208D38BB3346002280212046009588
:1046600004F0CCFC18B100E03CE0012085E7608D4F
:10467000FF280CD9FF2020850020009094F82820E6
:104680004FF080734946204604F09EFC0BE0608D9D
:1046900020850020009094F828204FF000734946B0
:1046A000204604F091FC608D0028B9D12A4631469D
:1046B000204604F0D2FC08B101205EE720202168EA
:1046C000C861206840680949084021684860202086
:1046D00084F84100002084F8420000BF84F84000C4
:1046E00000BF4AE7022048E70024008000E800FEFF
:1046F0002DE9FC5F0446894692469B46DDE90C782D
:104700000E9E94F8410020287DD117B1B8F1000F1A
:1047100005D14FF4007060640120BDE8FC9F00BF2C
:1047200094F84000012801D10220F6E7012084F826
:10473000400000BFFFF7D4FC054619230122D10336
:104740002046009504F05AFC08B10120E5E721203D
:1047500084F84100402084F84200002060646762D1
:10476000A4F82A8060635B46524649462046CDE95C
:10477000006504F0EBFB30B100BF002084F840007E
:1047800000BF0120C9E7608DFF280CD9FF202085DC
:104790000020009094F828204FF08073494620466E
:1047A00004F012FC0BE0608D20850020009094F84E
:1047B00028204FF000734946204604F005FC00BF56
:1047C0002A463146204604F073FC08B10120A4E7D4
:1047D000606A007821688862606A401C6062608D4F
:1047E000401E6085208D401E2085608D40B3208D49
:1047F00030BB3346002280212046009504F0FEFBAA
:1048000010B1012089E73AE0608DFF280CD9FF2024
:1048100020850020009094F828204FF080734946AE
:10482000204604F0D1FB0BE0608D20850020009035
:1048300094F828204FF000734946204604F0C4FB4A
:10484000608D0028BCD12A463146204604F005FC84
:1048500008B1012061E720202168C8612068406814
:104860000849084021684860202084F84100002061
:1048700084F8420000BF84F8400000BF4DE70220EA
:104880004BE7000000E800FE10B504460F49206821
:1048900088420BD10E48006820F400100C490860D3
:1048A0004FF440710B48FFF749FA0EE00A492068BF
:1048B00088420AD10648006820F4000004490860D4
:1048C0004FF4C0710548FFF739FA10BD005400409D
:1048D0004038024000040240005C0040001C0240DE
:1048E00010B586B00446142101A8FBF7D3FC324969
:1048F000206888422CD100BF3048006840F0020098
:104900002E4908600846006800F00200009000BFD1
:1049100000BF4FF4407001901220029001200390DC
:10492000002004900420059001A92548FFF7C6FA4D
:1049300000BF22481030006840F400101F491031B9
:1049400008600846006800F40010009000BF30E0E6
:104950001C49206888422CD100BF1848006840F0EC
:104960008000164908600846006800F0800000904A
:1049700000BF00BF4FF4C0700190122002900120D0
:104980000390032004900420059001A90E48FFF72E
:1049900095FA00BF09481030006840F4000007494C
:1049A000103108600846006800F40000009000BF65
:1049B00000BF06B010BD0000005400403038024077
:1049C00000040240005C0040001C024003480068F4
:1049D0000349097808440149086070471400002021
:1049E0001C00002010B5032000F0B4FA002000F0F5
:1049F00005F800F041FA002010BD000070B588B045
:104A000004460025002600222146362000F064FAE4
:104A1000362000F051FA00BF1648006840F0100040
:104A2000144908600846006800F01000019000BFBB
:104A300000BF02A903A801F0D9F901F0FFF9450070
:104A40000D48B5FBF0F0461E0C480D49086040F2D9
:104A5000E7310B48C160466000210161816002F0CE
:104A600091FE20B9064802F013FF08B070BD012086
:104A7000FBE700004038024040420F0000100040B9
:104A8000DC17002070B504460E46154600BF94F8AA
:104A9000A000012801D1022070BD012084F8A000EF
:104AA00000BF022084F8A10005EB850101EBC502DF
:104AB00004F1380101EB820034223146FBF7D1FBCF
:104AC0002A463146204604F0B7FC0120216848629E
:104AD00084F8A10000BF002084F8A00000BF00BF40
:104AE000DAE77047014691F8A100704770B50446B7
:104AF0002068856B2068466B05F00400E0B106F085
:104B00000400C8B12068406B20F0040021684863AD
:104B100004202168C863D4F8A40040F00100C4F860
:104B2000A400042084F8A10000BF002084F8A000A5
:104B300000BF2046FFF7D5FF05F00200E0B106F008
:104B40000200C8B12068406B20F002002168486371
:104B500002202168C863D4F8A40040F00200C4F821
:104B6000A400042084F8A10000BF002084F8A00065
:104B700000BF2046FFF7B5FF05F00100A8B106F021
:104B8000010090B12068406B20F00100216848636B
:104B900001202168C86384F8A10000BF002084F8C8
:104BA000A00000BF204600F0A7F805F00800B0B153
:104BB00006F0080098B12068406B20F008002168DA
:104BC000486308202168C863012084F8A10000BF61
:104BD000002084F8A00000BF204600F04BF970BD13
:104BE00070B504460CB9012070BD94F8A10028B935
:104BF000002084F8A000204600F080F8022084F80D
:104C0000A1002068806920F0704021688861D4E9A3
:104C100001010843E1680843216908432168896963
:104C2000084321688861206880683249084021680B
:104C30008860A08A050420688068A1692943084328
:104C4000216888602068C0682A4908402168C860D7
:104C5000A08B05042068C068216A294308432168A5
:104C6000C860206800692349084021680861A08C59
:104C7000050420680069A16A294308432168086186
:104C8000206840691B49084021684861A08D0504DF
:104C900020684069216B294308432168486194F8E2
:104CA0003500050294F8360006042068C06A00F05A
:104CB0007F402168C86246EA050094F83410084332
:104CC0002168C96A08432168C8622068406B40F0C7
:104CD0000600216848632068806940F0010021686F
:104CE00088610020C4F8A400012084F8A1000020FD
:104CF0007AE7000000F800F07047000010B586B0B9
:104D00000446142101A8FBF7C5FA534920688842DC
:104D10007ED100BF5148006840F080604F49086074
:104D20000846006800F08060009000BF00BF00BF30
:104D30004A481438006840F01000484914390860A7
:104D40000846006800F01000009000BF00BF00BFE0
:104D50000846006840F4007008600846006800F4E7
:104D60000070009000BF00BF00BF0846006840F41C
:104D7000806008600846006800F48060009000BF12
:104D800000BF00BF0846006840F0400008600846C9
:104D9000006800F04000009000BF00BF00BF084660
:104DA000006840F4807008600846006800F4807075
:104DB000009000BF00BF1020019002200290002050
:104DC000039004900E20059001A92548FFF776F87E
:104DD0004EF6FF7001900220029000200390049094
:104DE0000E20059001A91F48FFF768F8F7200190F1
:104DF000022002900020039004900E20059001A94B
:104E00001948FFF75BF84FF480500190022000E052
:104E10001FE002900020039004900920059001A952
:104E20001248FFF74BF84FF44640019002200290E1
:104E30000020039004900E20059001A90C48FFF774
:104E40003DF800221146582000F046F8582000F0A6
:104E500033F806B010BD000000680140443802403D
:104E600000100240002402400028024000180240C6
:104E7000002002407047000008B500BF0D480068E0
:104E800040F080500B4908600846006800F08050F0
:104E9000009000BF00BF00BF081D006840F48040C4
:104EA000091D08600846006800F48040009000BFBB
:104EB00000BF08BD4038024001460846002809DB13
:104EC00000F01F0301229A4043099B0003F1E023F5
:104ED000C3F8002100BF70472DE9F05F80460D4602
:104EE0001646002707F062F9074639462A46334638
:104EF00001F00700C0F1070ABAF1040F02D94FF020
:104F0000040A01E0C0F1070AD14600F1040ABAF12F
:104F1000070F02D24FF0000A01E0A0F1030AD446C5
:104F20004FF0010A0AFA09FAAAF1010A0AEA020A8A
:104F30000AFA0CFA4FF0010B0BFA0CFBABF1010B68
:104F40000BEA030B4AEA0B042146404607F036F908
:104F5000BDE8F09F00BF00F00702064B19684FF64E
:104F6000FF031940044B0B4343EA0221014B196034
:104F700000BF70470CED00E00000FA0538B50024D2
:104F800000BF2048006840F080501E490860084675
:104F9000006800F08050009000BF00BF1A48006811
:104FA00040F4803018490860FFF79AF8044607E09B
:104FB000FFF796F8001BB0F57A7F01D9032038BDC2
:104FC0001148406800F48030B0F5803FF0D10E48C1
:104FD000006840F400300C490860FFF781F804468F
:104FE00007E0FFF77DF8001BB0F57A7F01D90320B9
:104FF000E5E70548406800F40030B0F5003FF0D127
:105000000020DCE7403802400070004003480068A0
:1050100040F4807001490860704700000070004053
:10502000F8B504460125FFF75BF806460CB90120E8
:10503000F8BD206A402800D000BF00BF94F84000AF
:10504000012801D10220F3E7012084F8400000BFCD
:1050500094F8410050B9002084F84000204600F048
:105060004BF841F28831204600F0CEF82068006805
:1050700020F4F851A068401E41EA00202168086031
:10508000A06C3346002220210090204605F0BDF997
:10509000054635BB2179E06840EA0160E1690843D3
:1050A000216A084321680968114A114008432168B0
:1050B0000860208A616941EA0040A16908432168CB
:1050C00049680C4A1140084321684860206800681C
:1050D00040F001002168086000206064012084F82D
:1050E000410000BF002084F8400000BF28469FE731
:1050F0002FFFFF00FEF8E0FF10B586B00446142134
:1051000001A8FBF7C7F83B492068884270D100BF6F
:105110003948006840F002003749086008460068D6
:1051200000F00200009000BF00BF00BF3248083806
:10513000006840F0100030490839086008460068EF
:1051400000F01000009000BF00BF00BF08460068DC
:1051500040F0020008600846006800F0020000907D
:1051600000BF00BF00BF0846006840F008000860AC
:105170000846006800F00800009000BF00BF04204F
:105180000190022002900020039003200490092047
:10519000059001A91948FEF791FE402001900220D8
:1051A000029000200390032004900A20059001A99A
:1051B0001348FEF783FE0420019002200290002095
:1051C0000390032004900920059001A90C48FEF7E4
:1051D00075FE4FF460500190022002900020039071
:1051E000032004900920059001A90648FEF766FEF9
:1051F00006B010BD001000A0383802400010024078
:1052000000040240000C0240816470470021664A9D
:105210000260664A1268C2F388124260634A1268EA
:10522000C2F301430361614A1268C2F30363C360BE
:105230005E4A1268C2F3027383605C4A121D1268F0
:10524000C2F388124261594A121D1268C2F3014327
:105250000362564A121D1268C2F303638361534A04
:10526000121D1268C2F30273C361504A08321268F9
:1052700002F01F0242624D4A08321268C2F3042251
:1052800082624A4A08321268C2F30142C262474A45
:105290000832126802F44012C263444A08321268AB
:1052A00002F440020264414A7C3A126802F40002AD
:1052B00042633E4A0C32126802F4403242663B4A74
:1052C0000C32126802F440228266384A0C321268AC
:1052D00002F44012C266354A0C32126802F44002EF
:1052E0000267324A0C32126802F0030242642F4A0B
:1052F0000C32126802F00C0282642C4A0C321268E2
:1053000002F03002C264294A0C32126802F0C00274
:105310000265264A0C32126802F440724265234A42
:105320000C32126802F440628265204A0C32126824
:1053300002F44052C2651D4A0C32126802F4404227
:1053400002661A4A0C32126802F040724267174A2B
:105350000C32126802F080628267144A0C321268C2
:1053600002F00062C267114A0C32126802F08052E9
:10537000C0F880200D4A7C3A126802F4F8110B4AFA
:10538000143A126802F440720A430263074A083270
:10539000126802F0807212B90022826302E04FF0BC
:1053A0008072826370470000F1FFFF008438024082
:1053B00070B504460021002000220023B4F5002F20
:1053C00067D16A4D2B6803F4401333B1B3F5801FE6
:1053D0002FD0B3F5001F5AD157E0644D883D2D689A
:1053E00005F4800545B9614D883D2D6805F03F0500
:1053F0005F4EB6FBF5F207E05C4D883D2D6805F089
:105400003F055C4EB6FBF5F2584D2D1F2D68C5F3D8
:105410000361564D2D1F2D68C5F388155543B5FB07
:10542000F1F0524D2D68C5F30425691CB0FBF1F075
:105430002EE04E4D883D2D6805F4800545B94B4D55
:10544000883D2D6805F03F05494EB6FBF5F207E0B3
:10545000464D883D2D6805F03F05464EB6FBF5F2FA
:10546000424D083D2D68C5F30361404D083D2D6850
:10547000C5F388155543B5FBF1F03C4D2D6805F09B
:105480001F05691CB0FBF1F002E03B4800E000BFE3
:1054900000BFB4F5801F67D1344D2B6803F440037F
:1054A00033B1B3F5800F2FD0B3F5000F5AD157E0C9
:1054B0002E4D883D2D6805F4800545B92B4D883D5E
:1054C0002D6805F03F052A4EB6FBF5F207E0274DA3
:1054D000883D2D6805F03F05264EB6FBF5F2234DBD
:1054E0002D1F2D68C5F30361204D2D1F2D68C5F3B9
:1054F00088155543B5FBF1F01C4D2D68C5F3042507
:10550000691CB0FBF1F02EE0184D883D2D6805F4C4
:10551000800545B9154D883D2D6805F03F05144EB1
:10552000B6FBF5F207E0114D883D2D6805F03F050B
:10553000104EB6FBF5F20D4D083D2D68C5F3036125
:105540000A4D083D2D68C5F388155543B5FBF1F0AC
:10555000064D2D6805F01F05691CB0FBF1F002E057
:10556000054800E000BF00BF70BD00008C3802405D
:105570000024F40040787D010080BB002DE9F84351
:105580000446002600250027A846A946207800F0FA
:10559000010088B100BFFE48006820F40000FC490B
:1055A000086008460068616B0843F949086000BF5D
:1055B000606B08B94FF00108206800F40020B0F5D6
:1055C000002F13D1F2488430006820F44010E16BC2
:1055D0000843EF4984310860E06BB0F5801F01D1CA
:1055E0004FF00108E06B08B94FF00109206800F4A2
:1055F0008010B0F5801F13D1E5488430006820F496
:105600004000216C0843E24984310860206CB0F509
:10561000800F01D14FF00108206C08B94FF001094B
:10562000206800F08070B0F1807F01D14FF0010858
:10563000207800F02000202870D100BFD4483830F6
:10564000006840F08050D249383108600846006850
:1056500000F08050009000BF00BFCE48006840F4CA
:105660008070CC490860FEF73BFD064607E0FEF778
:1056700037FD801B642802D90320BDE8F883C548A4
:10568000006800F480700028F1D0C14868300068DC
:1056900000F4407585B3208E00F44070A8422BD0F2
:1056A000BB486830006820F44075B948683000682D
:1056B00040F48030B649683108600846006820F43C
:1056C0008030086008460560006800F0010098B16D
:1056D000FEF706FD064608E0FEF702FD801B41F2DC
:1056E0008831884201D90320C7E7A948683000689B
:1056F000C0F340000028EFD000BF208E00F44070BF
:10570000B0F5407F0BD1A248006820F4F810A24AFF
:10571000216B114008439E49086006E010E09C4858
:10572000006820F4F8109A490860994868300068C9
:10573000218EC1F30B01084395496831086000BF11
:10574000207800F01000102810D100BF904884305D
:10575000006820F080708E49843108600846006837
:10576000A16B08438A498431086000BF208800F497
:105770008040B0F5804F09D185488830006820F41A
:105780004030616E0843824988310860208800F407
:105790000040B0F5004F09D17D488830006820F402
:1057A0004020A16E08437A4988310860206800F4DF
:1057B0008030B0F5803F09D175488830006820F40A
:1057C0004010E16E0843724988310860206800F497
:1057D0000030B0F5003F09D16D488830006820F4F2
:1057E0004000216F08436A4988310860207800F042
:1057F0004000402809D166488830006820F0030046
:10580000616C0843624988310860207800F08000AC
:10581000802809D15E488830006820F00C00A16C17
:1058200008435B4988310860208800F48070B0F537
:10583000807F09D156488830006820F03000E16C44
:105840000843534988310860208800F40070B0F59F
:10585000007F09D14E488830006820F0C000216DDB
:1058600008434B4988310860208800F48060B0F517
:10587000806F09D146488830006820F44070616D1F
:105880000843434988310860208800F40060B0F57F
:10589000006F09D13E488830006820F44060A16D57
:1058A00008433B4988310860208800F48050B0F5F7
:1058B000805F09D136488830006820F44050E16D9F
:1058C0000843334988310860208800F40050B0F55F
:1058D000005F09D12E488830006820F44040216ED6
:1058E00008432B4988310860206800F48000B0F537
:1058F000800F09D126488830006820F08060A16FB1
:105900000843234988310860206800F40010B0F58E
:10591000001F0FD11E488830006820F00060E16F42
:1059200008431B4988310860E06FB0F1006F01D176
:105930004FF00109207800F00800082801D14FF04D
:105940000109206800F48020B0F5802F09D11048AB
:105950008830006820F04070616F08430C4988313E
:105960000860206800F40000B0F5000F0AD1084874
:105970008830006820F08050D4F880100843044933
:1059800088310860B8F1010F0BD0206806E00000F4
:105990000838024000700040FFFCFF0FB0F1007FAC
:1059A0007DD1AD48006820F08060AB490860FEF70B
:1059B00097FB064606E0FEF793FB801B642801D99F
:1059C00003205AE6A4480068C0F3C0600028F2D162
:1059D000207800F00100B8B1606BA8B99E4884300F
:1059E0000068C0F301459C4884300068C0F3036739
:1059F0006068800140EA054040EA0761207A41EA98
:105A00000070954984310860206800F40020B0F5EA
:105A1000002F03D1E06BB0F5801F09D0206800F49F
:105A20008010B0F5801F24D1206CB0F5800F20D1FC
:105A3000894884300068C0F3014587488430006895
:105A4000C0F302776068800140EA0541207B41EAAB
:105A5000006040EA07708049843108607E488C30DD
:105A6000006820F01F00616A491E08437A498C31A2
:105A70000860206800F08070B0F1807F17D1764810
:105A800084300068C0F30365734884300068C0F355
:105A9000027760688101208A41EA004000E031E03D
:105AA00040EA056040EA07706B498431086020686D
:105AB00000F00070B0F1007F0DD160688101208A94
:105AC00041EA0041207B41EA0061207A41EA00700E
:105AD0006149843108606048006840F080605E4938
